:100000000C94F2030C9423040C9423040C94230406
:100010000C9423040C9423040C9423040C942304C4
:100020000C9423040C9423040C9423040C942304B4
:100030000C9423040C9423040C9423040C942304A4
:100040000C9423040C94A8110C9423040C94230402
:100050000C9423040C9423040C9423040C94EA0AB7
:100060000C9423040C94BF0D0C948B0E0C9423045D
:100070000C9423040C9423040C9423040C94230464
:100080000C94D6110C9423040C9423040C94230494
:100090000C94F20D0C94CA0E0C9423040C942304BB
:1000A0000C9423040C9423040C9404120C94230445
:1000B0000C9423040C9423040C9423040C94321207
:1000C0000C9423040C9423040C9423040C94250E08
:1000D0000C94090F0C9423040C94580E0C94480FA4
:1000E0000C942304C621C921BC21C0210022CD21AA
:1000F000D121D721DB21DF21E521E921ED210022DA
:10010000F321F721FB210C94051A0C94E5210C94A2
:100110000F100C94E9210C94CD210C94C9210C945E
:100120001C0D0C94A8190C94461F0C94D1210C940E
:10013000E10B0C943F1A0C94D7210C949B140C9453
:10014000E0140C94630D0C94B5180C94C0210C941D
:10015000CF190C94ED210C94DF210C9468160C94AB
:1001600072140C9469160C9475150C94F3210C946C
:100170000C0D0C94B71A0C94871D0C94CB1E0C9488
:10018000D31D0C940A080C94C1130C9400220C94F7
:10019000BC190C9493150C9424150C946B140C94AA
:1001A0009A140C9409160C94DB210C94C6210C941F
:1001B000F7210C947E140C948A140C94FB210C945B
:1001C0006A140C94580D0C940B0D0C94BC210C94D7
:1001D000791A0C94380D0C949D1900000000003E13
:1001E0005B4F5B3E3E6B4F6B3E1C3E7C3E1C183CA7
:1001F0007E3C181C577D571C1C5E7F5E1C00183C03
:100200001800FFE7C3E7FF0018241800FFE7DBE74B
:10021000FF30483A060E2629792926407F05050732
:10022000407F05253F5A3CE73C5A7F3E1C1C08088E
:100230001C1C3E7F14227F22145F5F005F5F060953
:100240007F017F006689956A606060606094A2FFAC
:10025000A29408047E040810207E201008082A1C9E
:1002600008081C2A08081E101010100C1E0C1E0C6A
:1002700030383E3830060E3E0E060000000000000A
:10028000005F00000007000700147F147F14242A79
:100290007F2A12231308646236495620500008074B
:1002A0000300001C2241000041221C002A1C7F1C6C
:1002B0002A08083E0808008070300008080808086E
:1002C000000060600020100804023E5149453E00D5
:1002D000427F400072494949462141494D33181433
:1002E000127F1027454545393C4A49493141211182
:1002F00009073649494936464949291E0000140074
:100300000000403400000008142241141414141496
:10031000004122140802015909063E415D594E7CF4
:100320001211127C7F494949363E414141227F41A9
:1003300041413E7F494949417F090909013E414107
:1003400051737F0808087F00417F41002040413FF2
:10035000017F081422417F404040407F021C027F01
:100360007F0408107F3E4141413E7F090909063E56
:100370004151215E7F091929462649494932030125
:100380007F01033F4040403F1F2040201F3F403837
:10039000403F631408146303047804036159494D12
:1003A00043007F4141410204081020004141417F48
:1003B00004020102044040404040000307080020BE
:1003C000545478407F2844443838444444283844BE
:1003D00044287F385454541800087E090218A4A4F5
:1003E0009C787F0804047800447D40002040403D14
:1003F000007F1028440000417F40007C047804788E
:100400007C080404783844444438FC182424181820
:10041000242418FC7C08040408485454542404047C
:100420003F44243C4040207C1C2040201C3C403069
:10043000403C44281028444C9090907C4464544C98
:1004400044000836410000007700000041360800F3
:1004500002010204023C2623263C1EA1A161123A9D
:100460004040207A385454555921555579412254E9
:10047000547842215554784020545579400C1E52EE
:100480007212395555555939545454593955545493
:10049000580000457C410002457D420001457C40FA
:1004A0007D1211127DF0282528F07C54554500203E
:1004B00054547C547C0A097F4932494949323A44B0
:1004C00044443A324A4848303A4141217A3A42401B
:1004D0002078009DA0A07D3D4242423D3D404040ED
:1004E0003D3C24FF2424487E4943662B2FFC2F2BC0
:1004F000FF0929F620C0887E090320545479410061
:1005000000447D413048484A32384040227A007ADF
:100510000A0A727D0D19317D2629292F28262929BD
:10052000292630484D4020380808080808080808DF
:10053000382F10C8ACBA2F102834FA00007B000006
:1005400008142A142222142A14085500550055AA0A
:1005500055AA55AAFF55FF55FF000000FF001010D7
:1005600010FF00141414FF001010FF00FF1010F013
:1005700010F0141414FC001414F700FF0000FF0026
:10058000FF1414F404FC141417101F10101F101F74
:100590001414141F00101010F0000000001F1010A1
:1005A00010101F10101010F010000000FF1010109D
:1005B000101010101010FF10000000FF140000FFBA
:1005C00000FF00001F10170000FC04F414141710A3
:1005D000171414F404F40000FF00F7141414141496
:1005E0001414F700F7141414171410101F101F140C
:1005F0001414F4141010F010F000001F101F00006D
:10060000001F14000000FC140000F010F01010FF98
:1006100010FF141414FF141010101F00000000F03D
:1006200010FFFFFFFFFFF0F0F0F0F0FFFFFF000012
:10063000000000FFFF0F0F0F0F0F3844443844FC39
:100640004A4A4A347E02020606027E027E02635550
:100650004941633844443C04407E201E2006027E0B
:10066000020299A5E7A5991C2A492A1C4C7201721D
:100670004C304A4D4D303048784830BC625A463D87
:100680003E494949007E0101017E2A2A2A2A2A443C
:10069000445F444440514A444040444A5140000071
:1006A000FF0103E080FF000008086B6B083612367C
:1006B0002436060F090F060000181800000010105D
:1006C000003040FF0101001F01011E00191D17121B
:1006D000003C3C3C3C00000000000000090A02080D
:1006E0000B0C0D07060304010000000000000000D1
:1006F00000000000000000000000000000000000FA
:1007000000000000000011100F00000000000000B9
:1007100000000000000000000000000000000000D9
:100720000102102020080810204010204080020103
:1007300002010804020101020408102040808040E8
:1007400020100804020180040201804020100804E7
:100750000201080402010102040810204080010285
:10076000040810204080050505050705080808084D
:10077000020202020A0A0808040404040101010139
:100780000101010103030303030303030407070734
:100790000C0C0C0C0C0C0C0C0202020206060606D9
:1007A000060606060B0B0B0B0B0B0B0B00002200B7
:1007B000250028002B002E0031003400020100002B
:1007C000050108010B0100002100240027002A0078
:1007D0002D003000330001010000040107010A016F
:1007E0000A080F1011241FBECFEFD1E2DEBFCDBF2C
:1007F00000E00CBF13E0A0E0B2E0E8E0FBE400E0C2
:100800000BBF02C007900D92A437B107D9F727E0BC
:10081000A4E7B3E001C01D92A630B207E1F713E0F0
:10082000C2EFD3E000E006C021970109802FFE014E
:100830000E945125C03FD10780E00807A9F70E9418
:10084000D70A0C94E1220C940000EF92FF920F93D0
:100850001F93CF93DF937C01EB0161E072E08FE2A5
:1008600094E00E941E0C4AE050E0BE018FE294E04A
:100870000E94F40CC130D105B9F548E750E060EAB8
:1008800070E08AE893E00E948B1960E078EF8AE8D4
:1008900093E00E94971966E172E08AE893E00E9473
:1008A0001E0C6FEF7FEF8AE893E00E94971968EEC5
:1008B00073E080E090E00E94590B00E010E04AE015
:1008C00050E0B8018FE294E00E94F40C64E170E023
:1008D0008DEB93E00E9465130F5F1F4F09341105E4
:1008E00071F709E410E0A9C2C230D105B9F548E7B3
:1008F00050E060EA70E08AE893E00E948B1960E0C3
:1009000078EF8AE893E00E94971966E172E08AE83E
:1009100093E00E941E0C6FEF7FEF8AE893E00E9445
:10092000971968EE73E080E090E00E94590B00E0B8
:1009300010E04AE050E0B8018FE294E00E94F40C2D
:1009400064E170E08DEB93E00E9465130F5F1F4F31
:10095000093A110571F709EA10E06FC2C330D105F9
:10096000C1F548E750E060EA70E08AE893E00E9451
:100970008B1960E078EF8AE893E00E94971966E1AE
:1009800072E08AE893E00E941E0C6FEF7FEF8AE826
:1009900093E00E94971968EE73E080E090E00E9477
:1009A000590B00E010E04AE050E0B8018FE294E01B
:1009B0000E94F40C64E170E08DEB93E00E946513FB
:1009C0000F5F1F4F093081E0180769F709E011E058
:1009D00034C2C430D105A9F548E750E060EA70E0C0
:1009E0008AE893E00E948B1960E078EF8AE893E050
:1009F0000E94971966E172E08AE893E00E941E0C5B
:100A00006FEF7FEF8AE893E00E94971968EE73E03A
:100A100080E090E00E94590B00E010E04AE050E0D6
:100A2000B8018FE294E00E94F40C64EB70E08DEB6F
:100A300093E00E9465130F5F1F4F0934110571F792
:100A400050CFC530D10509F095C048E750E060EAC5
:100A500070E08AE893E00E948B1960E078EF8AE802
:100A600093E00E94971966E172E08AE893E00E94A1
:100A70001E0C6FEF7FEF8AE893E00E94971968EEF3
:100A800073E080E090E00E94590B00E010E04AE043
:100A900050E0B8018FE294E00E94F40C64E170E051
:100AA0008DEB93E00E9465130F5F1F4F0934110512
:100AB00071F76DE570E08DEB93E00E94651360EDDA
:100AC00077E080E090E00E94590B48E750E060EA50
:100AD00070E08AE893E00E948B1960E078EF8AE882
:100AE00093E00E94971966E172E08AE893E00E9421
:100AF0001E0C6FEF7FEF8AE893E00E94971968EE73
:100B000073E080E090E00E94590B00E010E04AE0C2
:100B100050E0B8018FE294E00E94F40C64E170E0D0
:100B20008DEB93E00E9465130F5F1F4F0934110591
:100B300071F76DE570E08DEB93E00E94651360EA5C
:100B40007FE080E090E00E94590B00E010E04AE076
:100B500050E0B8018FE294E00E94F40C64EB70E086
:100B60008DEB93E00E9465130F5F1F4F093A11054B
:100B700071F7F1CEC730D10509F096C048E750E0D3
:100B800060EA70E08AE893E00E948B1960E078EFF9
:100B90008AE893E00E94971966E172E08AE893E0A0
:100BA0000E941E0C6FEF7FEF8AE893E00E94971976
:100BB00068EE73E080E090E00E94590B00E010E0E6
:100BC0004AE050E0B8018FE294E00E94F40C64E146
:100BD00070E08DEB93E00E9465130F5F1F4F0934A7
:100BE000110571F76DE570E08DEB93E00E946513E0
:100BF00060ED77E080E090E00E94590B00E010E0AB
:100C00004AE050E0B8018FE294E00E94F40C64E105
:100C100070E08DEB93E00E9465130F5F1F4F093466
:100C2000110571F76DE570E08DEB93E00E9465139F
:100C300060ED77E080E090E00E94590B00E010E06A
:100C40004AE050E0B8018FE294E00E94F40C64E1C5
:100C500070E08DEB93E00E9465130F5F1F4F093426
:100C6000110571F76DE570E08DEB93E00E9465135F
:100C700060ED77E080E090E00E94590B00E010E02A
:100C80004AE050E0B8018FE294E00E94F40C64EB7B
:100C900070E08DEB93E00E9465130F5F1F4F0930EA
:100CA00081E0180769F792CEC830D10509F095C0E8
:100CB00048E750E060EA70E08AE893E00E948B1910
:100CC00060E078EF8AE893E00E94971966E172E0AD
:100CD0008AE893E00E941E0C6FEF7FEF8AE893E0B2
:100CE0000E94971968EE73E080E090E00E94590B33
:100CF00000E010E04AE050E0B8018FE294E00E948A
:100D0000F40C64E170E08DEB93E00E9465130F5FDB
:100D10001F4F0934110571F76DE570E08DEB93E01D
:100D20000E94651360ED77E080E090E00E94590B2F
:100D300000E010E04AE050E0B8018FE294E00E9449
:100D4000F40C64E170E08DEB93E00E9465130F5F9B
:100D50001F4F0934110571F76DE570E08DEB93E0DD
:100D60000E94651360ED77E080E090E00E94590BEF
:100D700000E010E04AE050E0B8018FE294E00E9409
:100D8000F40C64E170E08DEB93E00E9465130F5F5B
:100D90001F4F0934110571F76DE570E08DEB93E09D
:100DA0000E94651360ED77E080E090E00E94590BAF
:100DB00000E010E04AE050E0B8018FE294E00E94C9
:100DC000F40C64E170E08DEB93E00E9465130F5F1B
:100DD0001F4F0934110571F784CDC930D10509F0D1
:100DE00080CD48E750E060EA70E08AE893E00E9436
:100DF0008B1960E078EF8AE893E00E94971964E22B
:100E000072E08AE893E00E941E0C6FEF7FEF8AE8A1
:100E100093E00E94971968EE73E080E090E00E94F2
:100E2000590B08E813E160E070E08DEB93E00E945D
:100E3000651301501109B9F754CD6DE570E08DEBE4
:100E400093E00E9465134AE050E0B8018FE294E01D
:100E50000E94F40C81E0E816F10429F460ED77E0DB
:100E600080E090E011C082E0E816F10429F468EB1C
:100E70007BE080E090E008C083E0E816F10431F404
:100E800060EA7FE080E090E00E94590BCE0103977A
:100E9000029710F14AE050E0B8018FE294E00E941E
:100EA000F40C64EB70E08DEB93E00E94651301504D
:100EB000110981F765E372E08FE294E00E943B0C38
:100EC0006DE570E08DEB93E0DF91CF911F910F9175
:100ED000FF90EF900C946513249791F4C9E4D0E04F
:100EE0004AE050E0BE018FE294E00E94F40C64E11D
:100EF00070E08DEB93E00E946513219789F7DACFBC
:100F0000CFEAD0E04AE050E0BE018FE294E00E94D8
:100F1000F40C64EB70E08DEB93E00E946513219775
:100F200089F7C8CFCF93DF9300D000D0CDB7DEB71D
:100F300086E793E00E94B51F29833A834B835C8345
:100F40008B819C8129813A81255F3140293F310580
:100F500078F79C012D5B32402336310588F448EC4C
:100F600050E060E670E08AE893E00E948B196AE343
:100F700072E08AE893E00E941E0C81E090E02DC0B0
:100F80009C0121593140273C310588F448EC50E060
:100F900060E670E08AE893E00E948B1964E472E0F6
:100FA0008AE893E00E941E0C82E090E016C085560D
:100FB0009109873C910508F0BBCF48EC50E060E612
:100FC00070E08AE893E00E948B1963E572E08AE89A
:100FD00093E00E941E0C83E090E026960FB6F894F2
:100FE000DEBF0FBECDBFDF91CF9108950F931F934A
:100FF000CF93DF938C01EB014AE050E08FE294E065
:101000000E94F40CBE01C801DF91CF911F910F9196
:101010000C942504EF92FF920F938DEB93E00E94C6
:1010200060122FEF49E06AE08AE893E00E94D01A4C
:101030008CE2E82EFF24F39405E029E348E364E022
:1010400086E793E00E940F210F91FF90EF900895A3
:101050000E947F0B40E050E0BA018AE893E00E94D2
:10106000911B40E855E260E070E08FE294E00E945E
:10107000870F66E672E08FE294E00E943B0C63E02B
:101080008AE893E00E94871D68E070E08DEB93E0B2
:101090000C942A13CF93DF9300D000D0CDB7DEB7E6
:1010A00060E070E08AE893E00E947515EE24EA940F
:1010B000FE2C08E210E028E131E04AE050E064E173
:1010C00070E08AE893E00E94091628E131E046E4E6
:1010D00050E064E170E08AE893E00E94091628E19C
:1010E00031E042E850E064E170E08AE893E00E9479
:1010F000091628E131E04EEB50E064E170E08AE847
:1011000093E00E94091644E150E068E270E08AE84A
:1011100093E00E948B1966E772E08AE893E00E94F0
:101120001E0C40E550E06EE170E08AE893E00E941A
:101130008B196AE872E08AE893E00E941E0C4CE882
:1011400050E068E270E08AE893E00E948B1961EA5F
:1011500072E08AE893E00E941E0C48EC50E068E2DE
:1011600070E08AE893E00E948B1963EB72E08AE8F2
:1011700093E00E941E0C98E0E92EF12C27E0C22E8D
:10118000D12C36E0A32EB12C45E0842E912C86E79D
:1011900093E00E94B51F29833A834B835C836D8360
:1011A0007E8369807A800B811C818D819E81892B51
:1011B00071F34AE050E0B3018FE294E00E94F40C36
:1011C0004AE050E0B8018FE294E00E94F40C075925
:1011D00011090B3B1240D8F6C301895C9109833693
:1011E000910528F4909275038092740323C0C30183
:1011F000815991408336910528F4B0927503A092ED
:10120000740318C0C301895592408336910528F4B0
:10121000D0927503C09274030DC081E2681A83E016
:10122000780A83E66816710408F0B1CFF09275036E
:10123000E092740348E750E060EA70E08AE893E0E7
:101240000E948B1960E078EF8AE893E00E9497197A
:1012500066E172E08AE893E00E941E0C6FEF7FEF78
:101260008AE893E00E94971968EE73E080E090E0CE
:101270000E94590B8CCFEF92FF920F931F93CF9345
:10128000DF93EC0160E070E08AE893E00E9475155E
:1012900048E250E06CE370E08AE893E00E948B192A
:1012A00067EC72E08AE893E00E941E0C4AE050E08E
:1012B000BE018AE893E00E94ED0C4CE350E066E446
:1012C00070E08AE893E00E948B1968ED72E08AE88A
:1012D00093E00E941E0CEE24EA94FE2C0CE310E036
:1012E00024E630E048E750E065E070E08AE893E00B
:1012F0000E94091624E630E048E750E061E770E01C
:101300008AE893E00E94091624E630E048E750E0BE
:101310006CED70E08AE893E00E94091642E850E024
:1013200064E170E08AE893E00E948B196DE972E055
:101330008AE893E00E941E0C42E850E06DE770E0FE
:101340008AE893E00E948B1965EE72E08AE893E0E8
:101350000E941E0C42E850E066EE70E08AE893E0DE
:101360000E948B1969EE72E08AE893E00E941E0CDD
:1013700060ED77E080E090E0DF91CF911F910F91D9
:10138000FF90EF900C94590BEF92FF920F931F93E5
:10139000CF93DF9300D000D0CDB7DEB760E070E030
:1013A0008AE893E00E947515EE24EA94FE2C06EE7E
:1013B00010E026E331E045E050E065E070E08AE8C7
:1013C00093E00E94791AE12CF12C02EE10E022E366
:1013D00031E047E050E067E070E08AE893E00E9487
:1013E000791AEE24EA94FE2C00E510E027E830E0BC
:1013F0004FE050E06FE070E08AE893E00E94091649
:1014000027E830E04FE050E06AEA70E08AE893E0D5
:101410000E94091627E830E04EE650E06FE070E0E9
:101420008AE893E00E94091627E830E04EE650E093
:101430006AEA70E08AE893E00E940916E12C28EF3E
:10144000F22E0EE110E022E830E048EC50E06AEACB
:1014500070E08AE893E00E94091642E350E068E2F7
:1014600070E08AE893E00E948B1962E08AE893E0DA
:101470000E9491196DEE72E08AE893E00E941E0CC2
:1014800042E350E06EEB70E08AE893E00E948B1933
:1014900065EF72E08AE893E00E941E0C4CE850E091
:1014A00068E270E08AE893E00E948B196DEF72E0C9
:1014B0008AE893E00E941E0C4CE850E06EEB70E06E
:1014C0008AE893E00E948B1965E073E08AE893E074
:1014D0000E941E0C42ED50E06EEB70E08AE893E053
:1014E0000E948B196DE073E08AE893E00E941E0C65
:1014F00086E793E00E94B51F29833A834B835C8380
:101500006D837E8329813A818B819C814D815E81AF
:10151000452B71F3A901495C5109433B510508F57D
:101520009C01275232402231314018F481E090E092
:1015300007C087599109893F9105D0F682E090E074
:10154000909375038093740326960FB6F894DEBFCC
:101550000FBECDBFDF91CF911F910F91FF90EF9004
:101560000895A90147525240433B510590F49C0114
:10157000275232402231314018F483E090E0E0CF2E
:1015800087599109893F910508F0B2CF84E090E036
:10159000D7CF8B5A9109853E910508F0A9CF2D50E0
:1015A00033402534310508F0A3CF0E944A080E9439
:1015B00028080E94C40980917403909175030E94C9
:1015C0003B090E94920760917403709175030E9419
:1015D000F607EFCF1F920F920FB60F9211242F93A1
:1015E0003F938F939F93AF93BF938091C10390914B
:1015F000C203A091C303B091C4033091C00323E0A0
:10160000230F2D3720F40196A11DB11D05C026E83A
:10161000230F0296A11DB11D2093C0038093C10327
:101620009093C203A093C303B093C4038091C503F6
:101630009091C603A091C703B091C8030196A11D64
:10164000B11D8093C5039093C603A093C703B093C5
:10165000C803BF91AF919F918F913F912F910F90B0
:101660000FBE0F901F9018953FB7F8948091C50357
:101670009091C603A091C703B091C80326B5A89B5B
:1016800005C02F3F19F00196A11DB11D3FBFBA2F14
:10169000A92F982F8827820F911DA11DB11DBC0174
:1016A000CD0142E0660F771F881F991F4A95D1F739
:1016B0000895CF92DF92EF92FF92CF93DF936B0169
:1016C0007C010E94340BEB01C114D104E104F1044C
:1016D00079F00E94340B6C1B7D0B683E7340A0F3C5
:1016E00081E0C81AD108E108F108C851DC4FECCFFD
:1016F000DF91CF91FF90EF90DF90CF900895789495
:1017000084B5826084BD84B5816084BD85B5826006
:1017100085BD85B5816085BDEEE6F0E080818160A4
:101720008083E1E8F0E010828081826080838081A4
:1017300081608083E0E8F0E0808181608083E1EB7C
:10174000F0E0808184608083E0EBF0E08081816064
:101750008083E1E9F0E08081826080838081816024
:101760008083E0E9F0E0808181608083E1EAF0E05D
:10177000808182608083808181608083E0EAF0E004
:10178000808181608083E1E2F1E0808182608083FA
:10179000808181608083E0E2F1E0808181608083EC
:1017A000EAE7F0E0808184608083808182608083CA
:1017B0008081816080838081806880831092C100F5
:1017C0000895CF92DF92EF92FF920F931F93CF93E2
:1017D000DF936C01EB017B01E40EF51E00E010E0ED
:1017E000CE15DF0561F06991D601ED91FC91019074
:1017F000F081E02DC6011995080F191FF1CFC8011E
:10180000DF91CF911F910F91FF90EF90DF90CF90DC
:1018100008956115710579F0FB0101900020E9F749
:101820003197AF01461B570BDC01ED91FC91028013
:10183000F381E02D199480E090E008950C94090C58
:10184000DC01ED91FC910190F081E02D19940F9352
:101850001F93CF93DF93EC016DE00E94200C8C016D
:101860006AE0CE010E94200C800F911FDF91CF9182
:101870001F910F9108950F931F93CF93DF93EC0166
:101880000E94090C8C01CE010E94270C800F911F31
:10189000DF91CF911F910F9108958F929F92AF92F8
:1018A000BF92CF92DF92EF92FF920F931F93CF934D
:1018B000DF93CDB7DEB7A1970FB6F894DEBF0FBEAA
:1018C000CDBF6C01142FE52FCB01022F19A22230BE
:1018D00008F40AE07E0121E2E20EF11C802E912C38
:1018E000A12CB12C612F7E2FA50194010E941025FF
:1018F000029F1019112481E0E81AF1081A3014F43B
:10190000105D01C0195CF7011083122FE32FCA018B
:10191000232B242B252B31F7B701C6010E94090C7C
:10192000A1960FB6F894DEBF0FBECDBFDF91CF9169
:101930001F910F91FF90EF90DF90CF90BF90AF90ED
:101940009F908F900895CF92DF92EF92FF920F9326
:101950001F93CF93DF93EC016A017B0121153105C1
:1019600079F4E881F9810190F081E02D642FDF9115
:10197000CF911F910F91FF90EF90DF90CF9019942E
:101980002A303105E9F477FF1AC06DE20E94200C7D
:101990008C0144275527BA014C195D096E097F094E
:1019A0002AE0CE010E944D0C800F911FDF91CF9154
:1019B0001F910F91FF90EF90DF90CF9008952AE054
:1019C000B701A601CE01DF91CF911F910F91FF903A
:1019D000EF90DF90CF900C944D0C9A01AB01770FF4
:1019E000660B770B0C94A30C0F931F93CF93DF938D
:1019F000EC019A01AB01770F660B770B0E94A30CE9
:101A00008C01CE010E94270C800F911FDF91CF9196
:101A10001F910F9108950895FC0124853585F901E2
:101A2000E05CFF4F80819181329620813181821B61
:101A3000930B8F7399270895DC011C96ED91FC910F
:101A40001D97DF01A05CBF4F2D913C91119712961D
:101A50008D919C9111972817390739F08D919C91A0
:101A6000E80FF91F808190E008958FEF9FEF0895B0
:101A7000FC01A485B585FD01E05CFF4F208131812B
:101A80003296808191812817390779F08081918180
:101A9000A80FB91F8C91208131812F5F3F4F2F7389
:101AA00033273183208390E008958FEF9FEF0895CF
:101AB000FC0181A1882329F0A489B5898C9186FF36
:101AC000FBCF11A208950F931F93CF93DF93FC01D7
:101AD000A685B7858D01005C1F4FE801888199813B
:101AE00001968F739927AD014E5B5F4FEA01288104
:101AF000398182179307D1F3E80128813981A20F38
:101B0000B31F6C93A685B785A05CBF4F11969C93BD
:101B10008E93A689B7892C9181E090E0078C02C052
:101B2000880F991F0A94E2F7822B8C9381E081A39E
:101B30000488F589E02D80818064808381E090E0D5
:101B4000DF91CF911F910F910895FB01E05CFF4F52
:101B5000208131812F5F3F4F2F733327DB01AE5B35
:101B6000BF4F4D915C912417350741F04081518161
:101B7000DB01A40FB51F8C933183208308951F923E
:101B80000F920FB60F9211240BB60F922F933F9323
:101B90004F935F936F937F938F939F93AF93BF9375
:101BA000EF93FF938091C00082FD07C08091C60033
:101BB0006DE276E00E94A50D02C08091C600FF9103
:101BC000EF91BF91AF919F918F917F916F915F91B5
:101BD0004F913F912F910F900BBE0F900FBE0F9022
:101BE0001F9018951F920F920FB60F9211240BB6EB
:101BF0000F922F933F934F935F936F937F938F93A6
:101C00009F93AF93BF93EF93FF938091C80082FDA2
:101C100007C08091CE0065EA75E00E94A50D02C064
:101C20008091CE00FF91EF91BF91AF919F918F91E5
:101C30007F916F915F914F913F912F910F900BBECC
:101C40000F900FBE0F901F9018951F920F920FB616
:101C50000F9211240BB60F922F933F934F935F93E4
:101C60006F937F938F939F93AF93BF93EF93FF9364
:101C70008091D00082FD07C08091D6006DE175E0B3
:101C80000E94A50D02C08091D600FF91EF91BF91F7
:101C9000AF919F918F917F916F915F914F913F9104
:101CA0002F910F900BBE0F900FBE0F901F901895A5
:101CB0001F920F920FB60F9211240BB60F922F9313
:101CC0003F934F935F936F937F938F939F93AF93C4
:101CD000BF93EF93FF938091300182FD07C0809105
:101CE000360165E974E00E94A50D02C080913601BD
:101CF000FF91EF91BF91AF919F918F917F916F91E4
:101D00005F914F913F912F910F900BBE0F900FBE9F
:101D10000F901F9018951F920F920FB60F921124DB
:101D20000BB60F922F933F938F939F93EF93FF9355
:101D30002091290630912A0680912B0690912C063D
:101D40002817390731F48091C1008F7D8093C1003D
:101D500014C0E0912B06F0912C06E751FA4F208138
:101D600080912B0690912C0601968F739927909362
:101D70002C0680932B062093C600FF91EF919F9134
:101D80008F913F912F910F900BBE0F900FBE0F9030
:101D90001F9018951F920F920FB60F9211240BB639
:101DA0000F922F933F938F939F93EF93FF932091E5
:101DB000A1053091A2058091A3059091A405281753
:101DC000390731F48091C9008F7D8093C90014C018
:101DD000E091A305F091A405EF59FA4F208180917D
:101DE000A3059091A40501968F7399279093A4055C
:101DF0008093A3052093CE00FF91EF919F918F9147
:101E00003F912F910F900BBE0F900FBE0F901F9020
:101E100018951F920F920FB60F9211240BB60F92C6
:101E20002F933F938F939F93EF93FF9320911905E7
:101E300030911A0580911B0590911C0528173907D0
:101E400031F48091D1008F7D8093D10014C0E09156
:101E50001B05F0911C05E752FB4F208180911B056B
:101E600090911C0501968F73992790931C05809380
:101E70001B052093D600FF91EF919F918F913F9189
:101E80002F910F900BBE0F900FBE0F901F901895C3
:101E90001F920F920FB60F9211240BB60F922F9331
:101EA0003F938F939F93EF93FF93209191043091F1
:101EB000920480919304909194042817390731F487
:101EC000809131018F7D8093310114C0E0919304A2
:101ED000F0919404EF5AFB4F2081809193049091EC
:101EE000940401968F73992790939404809393049C
:101EF00020933601FF91EF919F918F913F912F9108
:101F00000F900BBE0F900FBE0F901F901895CF92A1
:101F1000DF92EF92FF920F931F93CF93DF93EC0129
:101F20006A017B014115514E6105710509F1EC898A
:101F3000FD8981E090E008A002C0880F991F0A94F3
:101F4000E2F7808360E079E08DE390E0A7019601FD
:101F50000E94102589019A010150110921093109B6
:101F60003695279517950795980101151041A8F00A
:101F7000EC89FD89108260E874E88EE190E0A701A9
:101F800096010E941025DA01C9010197A109B10942
:101F9000B695A795979587959C01E889F98930832F
:101FA000EA89FB89208319A2EE89FF89408181E0BB
:101FB00090E09C010C8C02C0220F331F0A94E2F7C0
:101FC000242B2083EE89FF8940819C010D8C02C067
:101FD000220F331F0A94E2F7242B2083EE89FF8916
:101FE00040819C010E8C02C0220F331F0A94E2F73D
:101FF000242B2083EE89FF8920810F8C02C0880F5B
:10200000991F0A94E2F7809582238083DF91CF9114
:102010001F910F91FF90EF90DF90CF900895CF9296
:10202000DF92EF92FF92EFE2F4E01382128288EEE9
:10203000C82E83E0D82EE12CF12CC482D582E68212
:10204000F78267E173E0718360838DE296E09587A4
:10205000848789EE95E09787868785EC90E0918B61
:10206000808B84EC90E0938B828B80EC90E0958B5E
:10207000848B81EC90E0978B868B82EC90E0918F43
:10208000808F86EC90E0938F828F44E0448F33E022
:10209000358F27E0268F95E0978F81E080A3EDE0D4
:1020A000F4E013821282C482D582E682F7827183C1
:1020B0006083A5EAB5E0B587A487A1E6B5E0B78758
:1020C000A687ADECB0E0B18BA08BACECB0E0B38BED
:1020D000A28BA8ECB0E0B58BA48BA9ECB0E0B78BD9
:1020E000A68BAAECB0E0B18FA08FAEECB0E0B38FBE
:1020F000A28F448F358F268F978F80A3EBEEF3E06E
:1021000013821282C482D582E682F7827183608351
:10211000ADE1B5E0B587A487A9EDB4E0B787A687A0
:10212000A5EDB0E0B18BA08BA4EDB0E0B38BA28B9A
:10213000A0EDB0E0B58BA48BA1EDB0E0B78BA68B82
:10214000A2EDB0E0B18FA08FA6EDB0E0B38FA28F6B
:10215000448F358F268F978F80A3E9ECF3E01382AD
:102160001282C482D582E682F7827183608365E938
:1021700074E07587648761E574E07787668765E357
:1021800071E0718B608B64E371E0738B628B60E351
:1021900071E0758B648B61E371E0778B668B62E332
:1021A00071E0718F608F66E371E0738F628F448F8F
:1021B000358F268F978F80A3FF90EF90DF90CF9081
:1021C0000895CF92DF92EF92FF920F931F93CF93D8
:1021D000DF936C018B017A01EC01CE58D94F8881D5
:1021E00087FF04C0FB011182108224C08CE08C9D0B
:1021F00090018D9D300D11248881A901480F511D3A
:1022000087FD5A958091710690E04817590794F41C
:102210008881A901480F511D87FD5A95CA01FA010D
:10222000EE0FFF1F8E0F9F1FFC01EA58F94F8081B0
:1022300086FD19C088818F5F88838CE08C9D90011A
:102240008D9D300D11248881A901480F511D87FDF6
:102250005A958091710690E048175907BCF488811F
:102260008C3044F113C08881280F311D87FD3A95C9
:10227000F901EE0FFF1F2E0F3F1FF901EA58F94F2A
:10228000808160E08F730E943D22D4CFF80180816D
:102290009181049680349C4918F480E49CE904C040
:1022A000F801808191810496F701918380838FEFFB
:1022B000888345C0F801408151818881B901680F48
:1022C000711D87FD7A95CB01FB01EE0FFF1F8E0F6D
:1022D0009F1FFC01EA58F94F81819281840F951F5D
:1022E000F701918380838881A901480F511D87FDE3
:1022F0005A95CA01FA01EE0FFF1F8E0F9F1FFC01B6
:10230000EA58F94F808186FF1AC08881280F311D55
:1023100087FD3A95F901EE0FFF1F2E0F3F1FF901C0
:10232000EA58F94F808161E08F73DF91CF911F915F
:102330000F91FF90EF90DF90CF900C943D22DF91B2
:10234000CF911F910F91FF90EF90DF90CF90089564
:102350001F920F920FB60F9211240BB60F922F936C
:102360003F934F935F936F937F938F939F93AF931D
:10237000BF93EF93FF9348E850E064E870E081E09A
:1023800090E00E94E110FF91EF91BF91AF919F917A
:102390008F917F916F915F914F913F912F910F900E
:1023A0000BBE0F900FBE0F901F9018951F920F92AB
:1023B0000FB60F9211240BB60F922F933F934F93AA
:1023C0005F936F937F938F939F93AF93BF93EF939D
:1023D000FF9348E950E064E970E082E090E00E94F9
:1023E000E110FF91EF91BF91AF919F918F917F91FC
:1023F0006F915F914F913F912F910F900BBE0F9076
:102400000FBE0F901F9018951F920F920FB60F924C
:1024100011240BB60F922F933F934F935F936F93BB
:102420007F938F939F93AF93BF93EF93FF9348EA6C
:1024300050E064EA70E083E090E00E94E110FF91D8
:10244000EF91BF91AF919F918F917F916F915F912C
:102450004F913F912F910F900BBE0F900FBE0F9099
:102460001F9018951F920F920FB60F9211240BB662
:102470000F922F933F934F935F936F937F938F931D
:102480009F93AF93BF93EF93FF9348E251E064E2D1
:1024900071E080E090E00E94E110FF91EF91BF9128
:1024A000AF919F918F917F916F915F914F913F91EC
:1024B0002F910F900BBE0F900FBE0F901F9018958D
:1024C000FC01909171069033A0F481E0890F809314
:1024D00071069083892F90E0FC01EE0FFF1F8E0F95
:1024E0009F1FFC01EA58F94F88EB9BE092838183A0
:1024F00008958FEF80830895DF92EF92FF920F93FC
:102500001F93CF93DF93EC01D62E7A018901888146
:10251000803308F06AC061E08D2D0E94012288811D
:10252000E82FF0E09F01220F331FE20FF31FEA585C
:10253000F94F9D2D9F732081207CD22ED92AD082E5
:1025400060E272E0AB014E195F0957FF02C04D5FB8
:102550005F4F5595479555954795498340E659E016
:102560009A01201B310B37FF02C02D5F3F4F35957D
:102570002795359527952A836CE00E9404259CE0D9
:10258000899FB001112440E050E09A01260F371FC7
:10259000F901EE0FFF1F2E0F3F1FF901EA58F94F07
:1025A000908196FD16C04F5F5F4F4C30510569F723
:1025B000813021F51092800082E08093810010929A
:1025C000850010928400B19A80916F0082608093A0
:1025D0006F00E881F0E0CF01880F991FE80FF91F25
:1025E000EA58F94F8081806480838881DF91CF91A0
:1025F0001F910F91FF90EF90DF900895823061F46A
:102600001092900080939100109295001092940087
:1026100088BB80937100DDCF833069F41092A000F5
:1026200082E08093A1001092A5001092A40089BBC3
:1026300080937200CECF8111CCCF1092200182E026
:102640008093210110922501109224018ABB80936E
:102650007300BFCF20E639E040E252E00C947C12D8
:10266000FC019081903380F5818128E830E0281BBF
:10267000310987FD3395220F331F220F331F621755
:1026800073077CF0828128E532E0281B310987FD41
:102690003395220F331F220F331F621773070CF479
:1026A0009B014FB7F894892F90E0FC01EE0FFF1FBC
:1026B0008E0F9F1FFC01EA58F94F22503109220F5B
:1026C000331F328321834FBF0895AF92BF92CF92C1
:1026D000DF92EF92FF920F931F93CF93DF93EC0162
:1026E000603282E078070CF03FC077FD06C0653BA2
:1026F00071052CF064EB70E002C060E070E089814D
:1027000028E830E05901A81AB10887FDB394AA0C53
:10271000BB1CAA0CBB1C0B2C000CCC08DD08072E24
:10272000000C880B990B2A8108E512E0021B1109A5
:1027300027FD1395000F111F000F111F012E000C14
:10274000220B330B3F932F931F930F9314EBE12E28
:10275000F12C00E010E020E030E0A9010E946D22A1
:102760000F900F900F900F90CE01DF91CF911F919E
:102770000F91FF90EF90DF90CF90BF90AF900C94AF
:1027800030132F923F924F925F926F927F928F926F
:102790009F92AF92BF92CF92DF92EF92FF920F93F0
:1027A0001F93CF93DF9300D0CDB7DEB74C017B836F
:1027B0006A836A01590117019801241B350B37FF01
:1027C00003C0319521953109C5014A815B81841B84
:1027D000950B97FF03C091958195910951E059831D
:1027E0008217930714F019820BC09A2D8B2D580174
:1027F000092F182F9A818B81DB82CA82C92ED82E8D
:102800008A819B81A816B9065CF49C2D8D2D6801E8
:10281000092F182F9A818B81BB82AA82A92EB82EEC
:102820002501AA81BB814A1A5B0A38016C187D0810
:1028300077FE03C0719461947108720157FE03C062
:10284000BFEFEB1AFB0AF594E794C016D1061CF013
:102850000FEF1FEF1FC001E010E01CC0D401ED918D
:10286000FC91B9810084F185E02D9101BB23C1F079
:102870004A815B81B601C4011995E618F708F7FE95
:1028800004C0C00ED11EE40CF51CEA81FB81319618
:10289000FB83EA834A815B81A416B506FCF604C07B
:1028A000A6016A817B81E7CF0F900F900F90DF9197
:1028B000CF911F910F91FF90EF90DF90CF90BF903D
:1028C000AF909F908F907F906F905F904F903F90D0
:1028D0002F9008950895DC01ED91FC910480F5811D
:1028E000E02D19940F931F93DC01ED91FC91008C66
:1028F000F18DE02D19951F910F9108950F931F935E
:10290000DC01ED91FC91028CF38DE02D19951F9166
:102910000F910895EF92FF920F931F93DC01ED91B9
:10292000FC91048CF58DE02D19951F910F91FF906E
:10293000EF9008950895AF92BF92CF92DF92EF92F9
:10294000FF920F931F93CF93DF9300D01F92CDB7C9
:10295000DEB75C016901DC01ED91FC910680F78135
:10296000E02D4B835C8369837A831995D501ED91C2
:10297000FC914B815C81C40ED51EB1E0CB1AD1080D
:102980000088F189E02D7801860169817A819B01B7
:10299000C5011995D501ED91FC910288F389E02DCF
:1029A000C5010F900F900F900F90DF91CF911F9165
:1029B0000F91FF90EF90DF90CF90BF90AF90199460
:1029C000AF92BF92CF92DF92EF92FF920F931F933D
:1029D000CF93DF9300D01F92CDB7DEB75C016901C2
:1029E000DC01ED91FC910680F781E02D4B835C8347
:1029F00069837A831995D501ED91FC9169817A817A
:102A00009B012C0D3D1D215031090088F189E02DDD
:102A100078014B815C818A01C5011995D501ED9141
:102A2000FC910288F389E02DC5010F900F900F9063
:102A30000F90DF91CF911F910F91FF90EF90DF905A
:102A4000CF90BF90AF9019944F925F926F927F9208
:102A50008F929F92AF92BF92CF92DF92EF92FF92AE
:102A60000F931F93CF93DF931F921F92CDB7DEB7C3
:102A70006C015A0139014801DC01ED91FC9106809D
:102A8000F781E02D69837A8319956981462E7A81D1
:102A9000572E640C751CD601ED91FC914614570419
:102AA0006CF40484F585E02D87019401A501B20141
:102AB000C6011995BFEF4B1A5B0AEDCF0288F38967
:102AC000E02DC6010F900F90DF91CF911F910F91D4
:102AD000FF90EF90DF90CF90BF90AF909F908F903E
:102AE0007F906F905F904F901994EF92FF920F93A9
:102AF0001F93DC01ED91FC9111971A960D911C9199
:102B00001B9718962D913C911997048CF58DE02D0B
:102B10007B0140E050E060E070E019951F910F915B
:102B2000FF90EF900895CF92DF92EF92FF920F9374
:102B30001F93CF93DF9300D000D0CDB7DEB76C01E9
:102B4000DC01ED91FC916217730789F404171507F6
:102B50002CF4942F852FA801092F182F041B150B77
:102B600098012F5F3F4F008CF18DE02D12C0401770
:102B7000510709F5261737072CF4962F872FB9012F
:102B8000292F382F261B370B2F5F3F4F028CF38DD9
:102B9000E02D8701C601199526960FB6F894DEBF81
:102BA0000FBECDBFDF91CF911F910F91FF90EF909E
:102BB000DF90CF9008950680F781E02D2D833E832E
:102BC0004B835C8369837A831995D601ED91FC91DF
:102BD0000088F189E02D2D813E814B815C816981E6
:102BE0007A81C6011995D601ED91FC910288F3898D
:102BF000E02DC60126960FB6F894DEBF0FBECDBFFE
:102C0000DF91CF911F910F91FF90EF90DF90CF90C8
:102C100019946F927F928F929F92AF92BF92CF92B0
:102C2000DF92EF92FF920F931F93CF93DF93EC010C
:102C30004B015A0169013801E881F9810680F78169
:102C4000E02D1995E881F9810684F785E02D87014B
:102C50009601A501B401CE011995E881F981A5017C
:102C6000460D571D415051090684F785E02D960108
:102C7000B401CE011995E881F9810484F585E02D30
:102C80009301A501B401CE011995E881F981C80C21
:102C9000D91CB601615071090484F585E02D9301BA
:102CA000A501CE011995E881F9810288F389E02D0B
:102CB000CE01DF91CF911F910F91FF90EF90DF90A8
:102CC000CF90BF90AF909F908F907F906F9019940E
:102CD0000895FC016370658B84819581268137811D
:102CE000613039F0633029F09187808733872287FC
:102CF000089531872087938782870895FC01138286
:102D0000128287E293E09183808375836483578383
:102D100046837187608753874287158A1586148694
:102D20001786168681E0848B2FEF3FEF338B228B43
:102D3000318B208B868B178A118E108E08952F92DF
:102D40003F924F925F926F927F928F929F92AF923B
:102D5000BF92CF92DF92EF92FF920F931F93CF9388
:102D6000DF93CDB7DEB76C970FB6F894DEBF0FBE1A
:102D7000CDBF9C8F8B8F5B011A011F830E833701A0
:102D8000C982DC0158964D915C91599741155105C6
:102D900009F0E5C018968D919C91199768177907ED
:102DA0000CF0CAC11A968D919C911B972816390672
:102DB0000CF0C2C18C2C912CFB0136E0C39EE00DBF
:102DC000F11D1124FB87EA871E161F060CF0B4C103
:102DD000C40133E0880F991F3A95E1F79D878C87EE
:102DE000820D931D181619060CF0A6C157968C91EA
:102DF000811103C0203B08F02F5FAB8DBC8DED919E
:102E0000FC9111970680F781E02DCD012A8F19954D
:102E10002A8DB5E02B9F90011124F5013596FF878F
:102E2000EE872501BB82AA82A9014A195B09598B49
:102E3000488BC10108969B8B8A8BE889F989E40D40
:102E4000F51DE652FE4F949198873D822C826101D8
:102E5000A885A0FF13C0AB8DBC8DED91FC91B9810D
:102E6000B13031F40084F185E02D2E813F8116C010
:102E70000284F385E02DEE80FF801AC0EE81FF8191
:102E80006E167F06F1F0AB8DBC8DED91FC91B98192
:102E9000B13051F40084F185E02D9301A601B20117
:102EA0008B8D9C8D19950DC00284F385E02D7301E7
:102EB000840194014C815D816A817B818B8D9C8D25
:102EC0001995E885E695E8872C813D81280D391D07
:102ED0003D832C833FEFC31AD30A4A895B89C4160A
:102EE000D50609F0B5CF8A819B81880D991D9B83FA
:102EF0008A839FEF491A590AAE85BF854A165B0639
:102F000009F09BCFEE81FF816E167F0609F4F2C0B7
:102F1000EB8DFC8DA081B181F981F13079F4B5019F
:102F20006B5F7F4F1C96ED91FC911D97830128E00C
:102F300030E0A1018B8D9C8D1995DCC06A857B8565
:102F4000681979091A96ED91FC911B9773010C850C
:102F50001D859401A1018B8D9C8D1995CBC0FA0123
:102F600034969491329765917491291BCB01B7E007
:102F70002B9F800D911D1124FA01259134913B8BDB
:102F80002A8BFC01459154915B834A83FC01329664
:102F9000C490319654915C87329614913196D490B6
:102FA0008981823058F0612E012E000C7708AD2DFA
:102FB0000D2C000CBB0BB987A88704C01986188696
:102FC000612C712CAB8DBC8DED91FC91119706801D
:102FD000F781E02DCD011995B9818B2E912C689C3C
:102FE000C001699C900D789C900D1124FC01EA0DA4
:102FF000FB1DF98BE88B1C82712C612CE12F110FCA
:10300000FF0B95012E0F3F1F3B872A87AC0CB11C8D
:10301000A5014E0F5F1F5F8B4E8BC1018D0D911D62
:10302000D7FC9A95998F888F4C85641608F062C0FA
:10303000862D90E048855985480F591F489D90017D
:10304000499D300D589D300D1124D901A20DB31D9D
:10305000BF87AE87AA84BB8448885988DC80BA853C
:10306000DB1AE88DF98DE80FF91FFD8BEC8B8D2DA8
:103070008A0D2E893F89A216B306B9F1877061F4D3
:103080008A819B810196EA89FB89AA81BB81EA0F2B
:10309000FB1F74909B838A8377FE20C0AB8DBC8D11
:1030A000ED91FC91B981B13061F40084F185E02D9E
:1030B0002E813F814C895D89B5018B8D9C8D199541
:1030C0000DC00284F385E02DEE80FF808401940121
:1030D0004E855F85B2018B8D9C8D1995770C480CC0
:1030E000591CEFEFAE1ABE0AC2CF3C813C0D3C83A7
:1030F00063949ACFAB8DBC8DED91FC9111970288B2
:10310000F389E02DCD016C960FB6F894DEBF0FBEAB
:10311000CDBFDF91CF911F910F91FF90EF90DF9086
:10312000CF90BF90AF909F908F907F906F905F9067
:103130004F903F902F9019946C960FB6F894DEBF85
:103140000FBECDBFDF91CF911F910F91FF90EF90F8
:10315000DF90CF90BF90AF909F908F907F906F90B7
:103160005F904F903F902F900895AF92BF92CF9273
:10317000EF92FF920F931F93CF93DF93EC01262FD3
:10318000888D998D009709F040C06A3059F41D86EA
:103190001C862C898E859F8538E0239F800D911D8C
:1031A000112441C06D3009F4AAC08E898823C1F072
:1031B0003C898C859D8546E0349F800D911D1124AE
:1031C00048855985481759075CF41D861C868E85ED
:1031D0009F8548E0349F800D911D11249F878E8725
:1031E000EA88FB88088919894E855F856C857D850D
:1031F000CC88CE010E949F162C898C859D8536E057
:10320000239F800D911D112442C06A3079F41D86E0
:103210001C862C89FC013696E4918E859F852E9F15
:10322000800D911D11249F878E8769C06D3009F430
:1032300066C0FC0134963491631708F460C031967F
:10324000E491E61708F45BC0FC013296A590B490B7
:10325000462F50E0431B510937E0349FB001359FA2
:10326000700D1124A60EB71EF501329634913196D9
:10327000E491332311F0E1110DC0F5013496E4918E
:103280002C898C859D85E29F800D911D11249D8741
:103290008C8735C0F501359644915E89552311F12F
:1032A0006C89E32FF0E0E40FF11D47FDFA956E9F66
:1032B000D0016F9FB00D11244C855D854A0F5B1FB7
:1032C000E885F985E417F5076CF41D861C86FC017A
:1032D0003696E4918E859F856E9F800D911D1124F9
:1032E0009F878E87EA88FB88088919894E855F85C4
:1032F0006C857D85CC88CE010E949F16BECF81E073
:1033000090E0DF91CF911F910F91FF90EF90CF90C0
:10331000BF90AF900895FC017587648757874687F3
:103320000895611101C061E0FC01648B0895FC0106
:10333000738B628B718B608B0895DC019C96ED9191
:10334000FC919D979081D1968C91892B80830895D3
:10335000EF92FF920F931F93DC01ED91FC91028499
:10336000F385E02D7801890121E030E019951F9166
:103370000F91FF90EF900895EF92FF920F931F939C
:10338000DC01ED91FC910284F385E02D780101E0F0
:1033900010E019951F910F91FF90EF9008950F93F2
:1033A0001F93CF93DF9300D000D0CDB7DEB78C0151
:1033B000DC01ED91FC910680F781E02D2D833E83A9
:1033C0004B835C8369837A831995D801ED91FC91D5
:1033D0000084F185E02D2D813E814B815C816981E6
:1033E0007A81C8011995D801ED91FC910288F38981
:1033F000E02DC80126960FB6F894DEBF0FBECDBFF4
:10340000DF91CF911F910F911994EF92FF920F933B
:103410001F93CF93DF9300D000D0CDB7DEB77C01F0
:10342000DC01ED91FC910680F781E02D2D833E8338
:103430004B835C8369837A831995D701ED91FC9165
:103440000484F585E02D2D813E814B815C8169816D
:103450007A81C7011995D701ED91FC910288F38912
:10346000E02DC70126960FB6F894DEBF0FBECDBF84
:10347000DF91CF911F910F91FF90EF901994EF92F0
:10348000FF920F931F93CF93DF9300D000D0CDB75F
:10349000DEB77C01DC01ED91FC910680F781E02D27
:1034A0002D833E834B835C8369837A831995D7018F
:1034B000ED91FC910684F785E02D2D813E814B81B5
:1034C0005C8169817A81C7011995D701ED91FC91E1
:1034D0000288F389E02DC70126960FB6F894DEBF67
:1034E0000FBECDBFDF91CF911F910F91FF90EF9055
:1034F0001994CF92DF92EF92FF920F931F93CF9385
:10350000DF9300D000D0CDB7DEB76C01DC01ED91C8
:10351000FC910680F781E02D2D833E834B835C83F5
:1035200069837A831995D601ED91FC910284F38524
:10353000E02D2D813E814B815C8169817A81C601BC
:103540001995D601ED91FC910288F389E02DC60111
:1035500026960FB6F894DEBF0FBECDBFDF91CF9198
:103560001F910F91FF90EF90DF90CF901994CF9320
:10357000DF93EC0189A187FF09C084E00E94D22279
:1035800081E00E94C42280E00E94CD22ECA5FDA52E
:10359000908189A9809589238083DF91CF910895B7
:1035A000EF92FF920F931F93CF93DF931F92CDB7AC
:1035B000DEB77C01062F142F40E451E060EF70E08D
:1035C00029830E947E168FE493E0D70111969C9385
:1035D0008E935E960C935E975F961C935F972981FE
:1035E00090962C9390978FEF91968C9391979296BB
:1035F0008C93929793968C939397F701128E138ED8
:10360000148E158E602F000F770BFB01EA59F84FCF
:103610008491E82FF0E0EE0FFF1FE455F84F8591FD
:1036200094919D969C938E939C97FB01E05EF84F3E
:10363000E491D196EC93D197412F110F550BFA01DC
:10364000EA59F84FE491F0E0EE0FFF1FE455F84F10
:1036500085919491F70193A782A7FA01E05EF84F54
:10366000E491D296EC93D29799961C921E929897D9
:10367000D0961C92D09795961C921E9294979E96E7
:103680001C929E9797961C921E9296979F961C92BC
:103690000F90DF91CF911F910F91FF90EF900895C0
:1036A000FC0181A187FF05C06EBD0DB407FEFDCFF3
:1036B000089528E030E090E8A4A1B5A186A5492F9F
:1036C000462319F04C91842B03C04C9180958423A0
:1036D0008C93A0A5B1A54C9180A9809584238C934F
:1036E000A0A5B1A54C9180A9842B8C9396952150CF
:1036F000310911F70895CF93DF93EC01EAA5FBA5FB
:1037000090818AA9809589238083CE010E94501BD5
:10371000EAA5FBA590818AA9892B8083DF91CF91AF
:103720000895CF93DF93EC014115510561057105B3
:1037300021F440E052E16AE770E04A8F5B8F6C8FC2
:103740007D8F61E08F8D0E94012260E08F8D0E944D
:103750003D2261E08E8D0E94012261E08E8D0E94EB
:103760003D2289A187FD16C061E08AA10E94012245
:1037700060E08AA10E943D2261E089A10E940122AD
:1037800061E089A10E943D228BA187FD03C060E01A
:103790000E94012289A187FD0E94AE2288A187FD97
:1037A00021C061E00E94012261E088A10E943D22C7
:1037B00064E670E080E090E00E94590B60E088A130
:1037C0000E943D2264E670E080E090E00E94590B88
:1037D00061E088A10E943D2268EC70E080E090E00A
:1037E0000E94590BE881F9810680F781E02DCE0116
:1037F00019956FEECE010E947B1B63E0CE010E9403
:10380000501B60E8CE010E94501B62E0CE010E9476
:10381000501B6FECCE010E947B1B60E0CE010E942A
:10382000501B61ECCE010E94501B60E3CE010E9450
:10383000501B6DEECE010E947B1B64E6CE010E9400
:10384000501B63E0CE010E94501B62E1CE010E943A
:10385000501B61E8CE010E94501B68EECE010E9411
:103860007B1B65E8CE010E94501B60E0CE010E94E8
:10387000501B68E7CE010E94501B6BECCE010E94EA
:103880007B1B69E3CE010E94501B6CE2CE010E94BB
:10389000501B60E0CE010E94501B64E3CE010E94E9
:1038A000501B62E0CE010E94501B67EFCE010E94C8
:1038B0007B1B60E2CE010E94501B6AEECE010E948B
:1038C0007B1B60E0CE010E94501B60E0CE010E9495
:1038D000501B60ECCE010E947B1B63E2CE010E9474
:1038E000501B61ECCE010E947B1B60E1CE010E9467
:1038F000501B65ECCE010E947B1B6EE3CE010E9443
:10390000501B68E2CE010E94501B67ECCE010E9462
:103910007B1B66E8CE010E94501B66E3CE010E942D
:103920007B1B68E4CE010E94501B67E3CE010E941E
:103930007B1B89A187FF09C01EBC0DB407FEFDCF0C
:103940001EBC0DB407FEFDCF08C060E0CE010E9492
:10395000501B60E0CE010E94501B6AE3CE010E9422
:103960007B1B65E5CE010E94501B61EBCE010E94DE
:103970007B1B60E0CE010E94501B68E1CE010E94DB
:10398000501B66EBCE010E947B1B68E0CE010E94BB
:10399000501B62E8CE010E94501B67E2CE010E94DC
:1039A000501B62EFCE010E947B1B60E0CE010E94A3
:1039B000501B66E2CE010E947B1B61E0CE010E949B
:1039C000501B60EECE010E947B1B6FE0CE010E9477
:1039D000501B61E3CE010E94501B6BE2CE010E949E
:1039E000501B6CE0CE010E94501B6EE0CE010E9485
:1039F000501B68E0CE010E94501B6EE4CE010E9475
:103A0000501B61EFCE010E94501B67E3CE010E9464
:103A1000501B67E0CE010E94501B60E1CE010E9466
:103A2000501B63E0CE010E94501B6EE0CE010E944D
:103A3000501B69E0CE010E94501B60E0CE010E9445
:103A4000501B61EECE010E947B1B60E0CE010E9404
:103A5000501B6EE0CE010E94501B64E1CE010E941B
:103A6000501B63E0CE010E94501B61E1CE010E9419
:103A7000501B67E0CE010E94501B61E3CE010E9403
:103A8000501B61ECCE010E94501B68E4CE010E94E5
:103A9000501B68E0CE010E94501B6FE0CE010E94D7
:103AA000501B6CE0CE010E94501B61E3CE010E94CE
:103AB000501B66E3CE010E94501B6FE0CE010E94B6
:103AC000501B61E1CE010E947B1B68E770E080E043
:103AD00090E00E94590B69E2CE010E947B1B68E7CF
:103AE00070E080E090E00E94590BE881F981028843
:103AF000F389E02DCE01199580EF90E099878887B2
:103B000080E491E09B878A87DF91CF9108951F938E
:103B1000CF93DF93EC0163706D8B6230C1F0633043
:103B200001F1613051F080EF90E09987888780E45F
:103B300091E09B878A8718E41DC080E491E0998713
:103B4000888780EF90E09B878A8718E213C080EF18
:103B500090E09987888780E491E09B878A8718E8BE
:103B600009C080E491E09987888780EF90E09B8787
:103B70008A8718EEE881F9810680F781E02DCE0171
:103B8000199566E3CE010E947B1B612FCE010E9436
:103B9000501BE881F9810288F389E02DCE01DF9185
:103BA000CF911F9119940F931F93CF93DF931F927F
:103BB000CDB7DEB78C01DC01ED91FC910680F78179
:103BC000E02D698319956981611102C060E201C02D
:103BD00061E2C8010E947B1BD801ED91FC91028833
:103BE000F389E02DC8010F90DF91CF911F910F91C4
:103BF00019948F929F92AF92BF92CF92DF92EF92E1
:103C0000FF920F931F93CF93DF93EC01490181E063
:103C1000881A9108860E971EC401A0E0B0E04B01FF
:103C2000A12CB12C540199248824882A992AAA2AE3
:103C3000BB2A680181E0C81AD108C40ED51EC6018E
:103C4000A0E0B0E06A01E12CF12C7601DD24CC2467
:103C5000C82AD92AEA2AFB2A6AE2CE010E947B1BE3
:103C600029A16B2D77278827992727FF18C06EBDBC
:103C70000DB407FEFDCFC501AA27BB278EBD0DB42D
:103C800007FEFDCFBB27AB2D9A2D892D8EBD0DB420
:103C900007FEFDCF8EBC0DB407FEFDCF14C0CE01D4
:103CA0000E94501BB50188279927CE010E94501B06
:103CB00099278B2D7A2D692DCE010E94501B682DDE
:103CC000CE010E94501B6BE2CE010E947B1B29A1FA
:103CD0006F2D77278827992727FF18C06EBD0DB451
:103CE00007FEFDCFC701AA27BB278EBD0DB407FE77
:103CF000FDCFBB27AF2D9E2D8D2D8EBD0DB407FEA4
:103D0000FDCFCEBC0DB407FEFDCF14C0CE010E9486
:103D1000501BB70188279927CE010E94501B992775
:103D20008F2D7E2D6D2DCE010E94501B6C2DCE014E
:103D30000E94501B6CE2CE01DF91CF911F910F9139
:103D4000FF90EF90DF90CF90BF90AF909F908F90BB
:103D50000C947B1B1F93CF93DF93262FFC0131A183
:103D600037FF09C07EBD0DB407FEFDCF2EBD0DB4DB
:103D700007FEFDCF0CC0672F122FEC010E94501BD5
:103D8000612FCE01DF91CF911F910C94501BDF91D9
:103D9000CF911F910895EF92FF920F931F93CF93AE
:103DA000DF9377FD23C0DC011896ED91FC91199704
:103DB0006E177F07DCF457FD19C01A96ED91FC9140
:103DC0001B974E175F0794F47901EC0101E010E0B6
:103DD00021E030E00E94F91DB701CE01DF91CF91C3
:103DE0001F910F91FF90EF900C94AA1EDF91CF913D
:103DF0001F910F91FF90EF900895EF92FF921F9304
:103E0000CF93DF9300D01F921F92CDB7DEB77C0116
:103E1000162FFC0181A187FF12C021153105410534
:103E2000510549F17EBD0DB407FEFDCF1EBD0DB499
:103E300007FEFDCF2150310941095109EECF21156F
:103E4000310541055105B9F0672FC70129833A8330
:103E50004B835C837D830E94501B612FC7010E94AE
:103E6000501B29813A814B815C81215031094109E4
:103E700051097D81E4CF0F900F900F900F900F901C
:103E8000DF91CF911F91FF90EF9008958F929F92B5
:103E9000AF92BF92CF92DF92EF92FF920F931F9358
:103EA000CF93DF935C01FB01E9014701DC01189628
:103EB0002D913C911997621773070CF049C01A961F
:103EC0008D919C911B97481759070CF041C06B01CD
:103ED000CC0EDD1ED60111977A01E00EF11EB7015E
:103EE00061507109B7FD34C077FD32C0F7FF03C0E0
:103EF000E601E0E0F0E057FF03C0870140E050E05A
:103F0000A217B3071CF0E901CE1BDF0B6817790776
:103F10001CF08C01041B150B9E01D8010E94592531
:103F20006B017C01BF01C5010E94F91DA70196012B
:103F3000B401C501DF91CF911F910F91FF90EF90D8
:103F4000DF90CF90BF90AF909F908F900C94FD1E0C
:103F5000DF91CF911F910F91FF90EF90DF90CF9065
:103F6000BF90AF909F908F9008954F925F926F9205
:103F70007F929F92AF92BF92CF92DF92EF92FF9289
:103F80000F931F93CF93DF9300D000D0CDB7DEB750
:103F90008C0160E0DC0112968C910E94012260E0AD
:103FA000F80183810E94012261E0D80115968C916D
:103FB0000E94012261E0F80184810E940122D8015F
:103FC00050968C9150971896ED91FC91199790818D
:103FD000892B808351969C9151971C96ED91FC9171
:103FE0001D978081282F30E0892F90E08095909553
:103FF00082239323808312968C910E948A217C01D4
:10400000F80182810E948A219701281B390B2C5FBD
:104010003F4F2930310548F4A701480F591FCA0105
:10402000959587959924939401C0912C2FEF33E0B7
:104030007901E81AF90A60E0D80115968C910E947E
:10404000012260E0F80184810E94012261E0D80130
:1040500012968C910E94012261E0F80183810E94F6
:104060000122D80153969C9153971E96ED91FC9195
:104070001F978081282F30E0892F90E080959095C0
:1040800082239323808352968C9152971A96ED91B6
:10409000FC911B979081892B808314968C910E94B0
:1040A0008A216C01F80184810E948A21A601481BA3
:1040B000590B4C5F5F4F4930510538F49601280F7A
:1040C000391FC9019595879501C0912C4FEF53E099
:1040D0006A01C81AD90A61E0D80115968C910E942C
:1040E000012260E0F80182810E940122D8015096ED
:1040F0009C9150971896ED91FC9119978081282FEB
:1041000030E0892F90E080959095822393238083DF
:1041100053968C9153971E96ED91FC911F97908129
:10412000892B808314968C910E948A215C01F8016E
:1041300082810E948A21D80116960D911C911797B1
:104140000115110509F43FC0BC01990F880B990BAB
:104150000E94FB232B013C01B501BB0C880B990B82
:104160000E94FB239B01AC01C301B2010E945123B9
:1041700020E030E040E85FE30E94E4222B013C01B4
:10418000B7010F2C000C880B990B0E94FB239B019D
:10419000AC01C301B2010E9487242B013C01B8018C
:1041A00080E090E00E94F9239B01AC01C301B201C1
:1041B0000E94872420E030E040E85AE30E948724F0
:1041C0000E94C32305C0B501681B790B61507C4F69
:1041D000911002C060E070E0FA82E982DC82CB825A
:1041E0007E836D832E2D3A814C2D5C817E8180E013
:1041F00090E026960FB6F894DEBF0FBECDBFDF91DC
:10420000CF911F910F91FF90EF90DF90CF90BF90D3
:10421000AF909F907F906F905F904F900895EF9236
:10422000FF920F931F93DC0112964C9312971496F2
:104230002C93149713960C93139715966C931597CC
:104240001796FC92EE92169770E0FB01EA59F84F30
:10425000E491F0E0EE0FFF1FE455F84F8591949143
:1042600019969C938E93189750E0FA01EA59F84FEB
:10427000E491F0E0EE0FFF1FE455F84F8591949123
:104280001B969C938E931A9730E0F901EA59F84FE8
:10429000E491F0E0EE0FFF1FE455F84F8591949103
:1042A0001D969C938E931C9710E0F801EA59F84FE5
:1042B000849190E0880F991F8455984FFC01859157
:1042C00094911F969C938E931E97FB01E05EF84F8E
:1042D000649150966C935097FA01E05EF84F4491C8
:1042E00052964C935297F901E05EF84F2491519603
:1042F0002C935197F801E05EF84F049153960C937C
:1043000053978AE090E08D939C931F910F91FF90BB
:10431000EF900895863308F0865390917B00282F04
:104320002870977F922B90937B00877020910002DA
:1043300090E4299F90011124822B80937C0080912E
:104340007A00806480937A0080917A0086FDFCCFA9
:10435000809178002091790090E0922B089590E070
:10436000FC013197E131F10508F04AC08827EE5889
:10437000FF4F8F4F0C945125809180008F7703C0A1
:10438000809180008F7D80938000089584B58F7721
:1043900002C084B58F7D84BD08958091B0008F7771
:1043A00003C08091B0008F7D8093B000089580910C
:1043B00090008F7707C0809190008F7D03C080911F
:1043C0009000877F8093900008958091A0008F7760
:1043D00007C08091A0008F7D03C08091A000877FDF
:1043E0008093A0000895809120018F7707C080916D
:1043F00020018F7D03C080912001877F8093200161
:104400000895CF93DF9390E0FC01E05EF84F249194
:10441000FC01EA59F84F8491882361F190E0880FFC
:10442000991FFC01EA53F84FC591D491FC01E45562
:10443000F84FA591B491611109C09FB7F894888194
:10444000209582238883EC912E230BC0623061F487
:104450009FB7F8943881822F809583238883EC91CD
:104460002E2B2C939FBF06C08FB7F894E8812E2B7C
:1044700028838FBFDF91CF9108951F93CF93DF9350
:10448000282F30E0F901E652F94F8491F901E05EFE
:10449000F84FD491F901EA59F84FC491CC23C9F0EF
:1044A000162F81110E94AF21EC2FF0E0EE0FFF1FBD
:1044B000E455F84FA591B4918FB7F894111105C048
:1044C0009C91ED2FE095E92302C0EC91ED2BEC934C
:1044D0008FBFDF91CF911F9108954F925F926F929E
:1044E0007F92AF92BF92CF92DF92EF92FF920F93A3
:1044F0001F93CF93DF93CDB7DEB729013A019B011C
:10450000AC0124193509460957098A899B89AC8968
:10451000BD89BC01CD016A197B098C099D090E94E6
:10452000F424A801970124193509460957090E9466
:104530003225CA01B9016A0D7B1D8C1D9D1DDF91BD
:10454000CF911F910F91FF90EF90DF90CF90BF9090
:10455000AF907F906F905F904F90089561E085E3FA
:104560000E943D2261E085E30E9401228CB58061BA
:104570008CBD8CB580648CBD61E084E30E94012217
:1045800061E083E30C940122811103C08CB5806249
:1045900002C08CB58F7D8CBD08959CB5937F892B0F
:1045A0008CBD08959CB5282F23709C7F922B9CBDB9
:1045B0002DB582FB992790F9822F8E7F892B8DBD97
:1045C0000895F8940C9482255058BB27AA270E947E
:1045D000FC220C944D240E943F2438F00E94462473
:1045E00020F039F49F3F19F426F40C943C240EF487
:1045F000E095E7FB0C943624E92F0E945E2458F3E3
:10460000BA17620773078407950720F079F4A6F5B7
:104610000C9480240EF4E0950B2EBA2FA02D0B01E4
:10462000B90190010C01CA01A0011124FF27591BF7
:1046300099F0593F50F4503E68F11A16F040A22FFD
:10464000232F342F4427585FF3CF4695379527956E
:10465000A795F0405395C9F77EF41F16BA0B620B6D
:10466000730B840BBAF09150A1F0FF0FBB1F661FB4
:10467000771F881FC2F70EC0BA0F621F731F841FF7
:1046800048F4879577956795B795F7959E3F08F01D
:10469000B0CF9395880F08F09927EE0F97958795DF
:1046A00008950E9465230C944D240E94462458F0DE
:1046B0000E943F2440F029F45F3F29F00C943624F7
:1046C00051110C9481240C943C240E945E2468F3C4
:1046D0009923B1F3552391F3951B550BBB27AA27BB
:1046E00062177307840738F09F5F5F4F220F331FF5
:1046F000441FAA1FA9F335D00E2E3AF0E0E832D0BD
:1047000091505040E695001CCAF72BD0FE2F29D0BF
:10471000660F771F881FBB1F261737074807AB0791
:10472000B0E809F0BB0B802DBF01FF2793585F4F06
:104730003AF09E3F510578F00C9436240C94812475
:104740005F3FE4F3983ED4F3869577956795B795E8
:10475000F7959F5FC9F7880F911D9695879597F9F3
:104760000895E1E0660F771F881FBB1F621773076C
:104770008407BA0720F0621B730B840BBA0BEE1F81
:1047800088F7E09508950E94CA236894B1110C94AB
:10479000812408950E94662488F09F5798F0B92FCD
:1047A0009927B751B0F0E1F0660F771F881F991F66
:1047B0001AF0BA95C9F714C0B13091F00E94802464
:1047C000B1E008950C948024672F782F8827B85F74
:1047D00039F0B93FCCF3869577956795B395D9F7BE
:1047E0003EF490958095709561957F4F8F4F9F4FC8
:1047F0000895E89409C097FB3EF4909580957095D4
:1048000061957F4F8F4F9F4F9923A9F0F92F96E91C
:10481000BB279395F695879577956795B795F11191
:10482000F8CFFAF4BB0F11F460FF1BC06F5F7F4F2E
:104830008F4F9F4F16C0882311F096E911C0772340
:1048400021F09EE8872F762F05C0662371F096E849
:10485000862F70E060E02AF09A95660F771F881F18
:10486000DAF7880F9695879597F9089597F99F67D6
:1048700080E870E060E008959FEF80EC08950024E8
:104880000A941616170618060906089500240A94B5
:1048900012161306140605060895092E0394000C3B
:1048A00011F4882352F0BB0F40F4BF2B11F460FFCA
:1048B00004C06F5F7F4F8F4F9F4F089557FD9058F3
:1048C000440F551F59F05F3F71F04795880F97FBD4
:1048D000991F61F09F3F79F087950895121613068E
:1048E0001406551FF2CF4695F1DF08C016161706BD
:1048F0001806991FF1CF86957105610508940895F2
:10490000E894BB2766277727CB0197F908950E9483
:104910009A240C944D240E943F2438F00E9446248F
:1049200020F0952311F00C9436240C943C2411248F
:104930000C9481240E945E2470F3959FC1F3950F1F
:1049400050E0551F629FF001729FBB27F00DB11D13
:10495000639FAA27F00DB11DAA1F649F6627B00DA3
:10496000A11D661F829F2227B00DA11D621F739F8C
:10497000B00DA11D621F839FA00D611D221F749F9A
:104980003327A00D611D231F849F600D211D822FE1
:10499000762F6A2F11249F5750409AF0F1F0882308
:1049A0004AF0EE0FFF1FBB1F661F771F881F915035
:1049B0005040A9F79E3F510580F00C9436240C948A
:1049C00081245F3FE4F3983ED4F38695779567950D
:1049D000B795F795E7959F5FC1F7FE2B880F911D5F
:1049E0009695879597F90895DB018F939F930E9481
:1049F0007725BF91AF91A29F800D911DA39F900D30
:104A0000B29F900D11240895991B79E004C0991F5D
:104A1000961708F0961B881F7A95C9F78095089518
:104A2000A1E21A2EAA1BBB1BFD010DC0AA1FBB1FB2
:104A3000EE1FFF1FA217B307E407F50720F0A21B24
:104A4000B30BE40BF50B661F771F881F991F1A9491
:104A500069F760957095809590959B01AC01BD01BB
:104A6000CF010895052E97FB1EF400940E9449255E
:104A700057FD07D00E94102507FC03D04EF40C947C
:104A8000492550954095309521953F4F4F4F5F4FA9
:104A9000089590958095709561957F4F8F4F9F4FAA
:104AA0000895EE0FFF1F881F8BBF0790F691E02D32
:104AB00019940E946125332312F48A1B9B0B0C94DA
:104AC0007225A29FB001B39FC001A39F700D811DED
:104AD0001124911DB29F700D811D1124911D089507
:104AE0000E946125B7FF0895821B930B08950E94D1
:104AF0006125A59F900DB49F900DA49F800D911DE1
:084B000011240895F894FFCF81
:104B080001726F7461746520746F20706F736974BB
:104B1800696F6E3A200044657370656E73696E67DD
:104B28002E2E2E0044657370656E73696E672E2E87
:104B38002E524950004865726500546F6F20736D9E
:104B4800616C6C0047657474696E67206265747483
:104B58006572005468617473206D6F7265206C69AA
:104B68006B6520697400496E697469616C697A695A
:104B78006E672E2E2E00536C6F74203120312F3229
:104B880028316F7A2C336F7A2900536C6F74203177
:104B98002F322F3328316F7A2C316F7A2C316F7A7C
:104BA80000536C6F7420312F322F332F3428316F1C
:104BB8005A29004D722E204C61686579277320535D
:104BC80070656369616C00596F7576652073656CF3
:104BD80065637465643A200043686F736520616D8E
:104BE8006F756E7400326F7A00336F7A00447269A1
:104BF8006E6B2031004472696E6B2032004472691A
:104C08006E6B2033004472696E6B2034004D6978F6
:104C180065730000000000630DE10B0C0D380D1CDE
:104C28000D580D00000000B518E10B0B0D6A146B50
:104C3800148A1472147E14C1139A14691668169B88
:104C480014E014241575159315091600000000B515
:104C580018E10BCF19B71ACB1E461FA819BC19C1EA
:104C6800139D19871DD31D051A3F1A791A751593B7
:044C78001509160004
:00000001FF
